:100000000C94D4000C94FC000C94FC000C94FC00A8
:100010000C94FC000C94FC000C94FC000C94FC0070
:100020000C94FC000C94FC000C9426040C94950495
:100030000C94FC000C94FC000C94FC000C94FC0050
:100040000C94FC000C94FC000C94FC000C94FC0040
:100050000C94FC000C94FC000C94FC000C94C7065F
:100060000C94FC000C94FC000C94FC000C94FC0020
:100070000C94FC000C94FC000C94FC000C94FC0010
:100080000C94FC000C94FC000C94FC000C94FC0000
:100090000C94FC000C94FC000C94FC000C94FC00F0
:1000A0000C94FC000C9411070C94FC000000000060
:1000B0002300260029002C002F0000000002000968
:1000C0000F0000030401000C00000000000000000D
:1000D00000000000000000000000000000250028D3
:1000E000002B002E00310000000000240027002A11
:1000F000002D00300004040404040304050202027D
:1001000002040302020202060606060606040402B0
:1001100002020404040802011040804010204080C4
:10012000408008020401804020100201108010204D
:10013000404020080B0002020200000904000001F8
:10014000020200000524001001052401010104241D
:10015000020605240600010705810310004009047A
:100160000100020A00000007050202400000070526
:1001700083024000000403090412010002EF02019F
:100180004041233780000101020301417264756917
:100190006E6F204C4C430041726475696E6F204D48
:1001A0006963726F0000EE0711241FBECFEFDAE023
:1001B000DEBFCDBF11E0A0E0B1E0EAEAF2E102C0AB
:1001C00005900D92A632B107D9F722E0A6E2B1E080
:1001D00001C01D92A936B207E1F710E0C4EDD0E0EE
:1001E00004C02197FE010E944D09C33DD107C9F704
:1001F0000E9409080C9453090C940000FC018091A2
:100200001602882311F13FB7F89482E08093E90049
:100210002091F200822F90E01816190614F481E064
:1002200090E0882339F0289A44E6409315024091E3
:10023000F1004083222339F02091F200211103C004
:100240002BE62093E8003FBF08958FEF9FEF0895BE
:100250002FB7F89483E08093E9009091E800892F0C
:10026000807295FF04C09091F20080E4891B2FBF3B
:10027000089580910D0281110DC082E080930902E2
:1002800084E080930A0210920C0210920B0281E02B
:1002900080930D0289E092E00895CF93DF931F923F
:1002A000CDB7DEB76983DC01ED91FC910280F3816B
:1002B000E02D41E050E0BE016F5F7F4F09950F9048
:1002C000DF91CF91089583E08093E9008091F2005F
:1002D000882319F08AE38093E80008950E9428019A
:1002E00090E00895CF93DF931F92CDB7DEB7FC0166
:1002F0008485958597FD08C02FEF3FEF35872487CC
:100300000F90DF91CF910895CE0101960E94FE00DB
:10031000019719F4898190E0F3CF8FEF9FEFF0CF31
:100320000F931F93CF93DF931F92CDB7DEB78C014E
:10033000FC018485958597FF0BC0CE0101960E9434
:10034000FE00019771F4898190E0F8019587848718
:10035000F801848595850F90DF91CF911F910F91C2
:1003600008958FEF9FEFF1CFFC018485958597FD70
:100370000BC09FB7F89482E08093E9008091F2006F
:100380009FBF90E0019608959FB7F89482E0809314
:10039000E9008091F2009FBF90E008954091030230
:1003A000509104022091010230910202421753073A
:1003B000B4F49091E8009570E1F39091E80092FD1B
:1003C00019C08093F100809103029091040201967C
:1003D0008F739927892B19F48EEF8093E800809111
:1003E0000302909104020196909304028093030209
:1003F00081E0089580E00895EF92FF920F931F939C
:10040000CF93DF93F82E192FE62E042F81E0860F6D
:10041000880F0E94CE0183E00E94CE01CF2DD12F04
:10042000EC0EFD2EF11CCE15DF05B9F007FF13C051
:10043000FE0184910E94CE01182F80E00E94CE011F
:10044000812321968111EFCFDF91CF911F910F91E1
:10045000FF90EF9008958881EDCF81E0F5CFDF9296
:10046000EF92FF920F931F93CF93DF93D82E8A01C1
:10047000EB017B01E40EF51ECE15DF0559F0D7FE2A
:1004800012C0FE0184910E94CE0121968111F4CF09
:100490000FEF1FEFC801DF91CF911F910F91FF90D8
:1004A000EF90DF9008958881EECF0F931F93CF9345
:1004B000DF931F92CDB7DEB782E0898342E450E03C
:1004C00063E371E080E80E942F020E943901DC01A1
:1004D00012960D911C910115110589F0D801ED912D
:1004E000FC910280F381E02DBE016F5F7F4FC80158
:1004F000099597FD04C0F80100851185ECCF89812D
:100500000F90DF91CF911F910F910895615030F0BE
:100510002091F100FC0120830196F8CF289A84E60F
:1005200080931502089581508F3008F047C0E82F5E
:10053000F0E0E356FD4F0C944D09BA02BE02AC0246
:10054000B202B602DE02DE02DE02C102C702CB0246
:10055000CF02D502DE02D902809180008F7780938E
:1005600080000895809180008F7DF9CF8091800078
:10057000877FF5CF84B58F7784BD089584B58F7D4F
:10058000FBCF809190008F778093900008958091A9
:1005900090008F7DF9CF80919000877FF5CF80917B
:1005A000C0008F778093C00008958091C0008F7D38
:1005B000F9CF8091C200877F8093C20008951F9376
:1005C000CF93DF93282F30E0F901E654FF4F849159
:1005D000F901EC5EFE4FD491F901EB50FF4FC4914D
:1005E000CC23A9F0162F81110E949302EC2FF0E08A
:1005F000EE0FFF1FE752FF4FA591B4918FB7F8940C
:10060000EC91111108C0D095DE23DC938FBFDF91F0
:10061000CF911F910895DE2BF8CF3FB7F8948091CA
:10062000FD019091FE01A091FF01B091000226B55D
:10063000A89B05C02F3F19F00196A11DB11D3FBF1A
:10064000BA2FA92F982F8827BC01CD01620F711DE9
:10065000811D911D42E0660F771F881F991F4A95E3
:10066000D1F708958F929F92AF92BF92CF92DF926F
:10067000EF92FF924B015C010E940D036B017C0124
:100680000E940D036C197D098E099F09683E734015
:1006900081059105A8F321E0821A9108A108B1080B
:1006A00088EEC80E83E0D81EE11CF11C8114910471
:1006B000A104B10429F7FF90EF90DF90CF90BF9095
:1006C000AF909F908F9008958F929F92AF92BF921C
:1006D000CF92DF92EF92FF920F931F93CF93DF930E
:1006E0006C017B018A0180910B01882309F45CC0B5
:1006F00080911602882309F457C08091080280FF78
:1007000005C08091E00082608093E000E801B12C98
:100710008AEFA82E93E0892E2AE3922E209711F4D7
:10072000BB20D9F10E94280181110AC0AA94AA20F5
:10073000D9F161E070E080E090E00E943203EECFFA
:100740008C171D0611F00CF08C2F9FB7F894809237
:10075000E9002091E80025FD02C09FBFDFCF282FD0
:1007600030E0C21BD30BF701815020F04191409340
:10077000F100FACFE20EF31EBB2021F09092E800C8
:10078000B12CEBCF8091E80085FDE7CF9092E80097
:10079000BB24B394209709F3F3CF5D9A84E680934A
:1007A0000702101611063CF081E090E0F6019383F9
:1007B000828310E000E0C801DF91CF911F910F917B
:1007C000FF90EF90DF90CF90BF90AF909F908F9071
:1007D00008958F929F92AF92BF92CF92DF92EF9245
:1007E000FF926B017C010E940D034B015C0184E0D0
:1007F000C81AD108E108F108C80CD91CEA1CFB1C76
:10080000C814D904EA04FB0438F40E940D038616C8
:100810009706A806B906C8F30E940D036C157D055E
:100820008E059F05C8F3FF90EF90DF90CF90BF90AB
:10083000AF909F908F900895E0ECF0E020812068C9
:100840002083BC0190E080E00C94E9031F920F929A
:100850000FB60F9211248F939F938091E100909196
:10086000E100937F9093E10083FF0FC01092E900B5
:1008700091E09093EB001092EC0092E39093ED00E6
:100880001092160298E09093F00082FF22C093E04D
:100890009093E9009091F200992319F09AE39093D4
:1008A000E80090910702992341F09091070291503E
:1008B00090930702911101C05D98909115029923C0
:1008C00041F090911502915090931502911101C041
:1008D000289884FF18C08091E2008E7E816080930A
:1008E000E2008091E1008F7E8093E1008091080218
:1008F0008E7E8061809308029F918F910F900FBE32
:100900000F901F90189580FFF7CF8091E2008E7EA8
:1009100080618093E2008091E1008E7E8093E1000F
:10092000809108028E7E8160E5CF1F920F920FB6F4
:100930000F921124CF92DF92EF92FF920F931F93A9
:100940002F933F934F935F936F937F938F939F93D7
:10095000AF93BF93EF93FF93CF93DF93CDB7DEB702
:100960006C97DEBFCDBF1092E9008091E80083FF55
:1009700025C068E0CE0145960E94860282EF8093F2
:10098000E8008D8987FF39C09091E80090FFFCCF87
:10099000982F907609F034C19E894F89588D2F8900
:1009A000F88C911131C0803861F5809106028093F6
:1009B000F1001092F1008EEF8093E8006C960FB674
:1009C000F894DEBF0FBECDBFDF91CF91FF91EF91C5
:1009D000BF91AF919F918F917F916F915F914F9157
:1009E0003F912F911F910F91FF90EF90DF90CF904B
:1009F0000F900FBE0F901F9018959EEF9093E800F8
:100A0000C7CF1092F100D5CF913059F48111D3CFD7
:100A10004130510581F6809106028D7F8093060258
:100A2000CACF933049F48111C6CF4130510519F630
:100A3000809106028260F2CF953041F48091E80007
:100A400080FFFCCF20682093E300B5CF963009F0FB
:100A5000A9C00B8D1C8D22E01092E90010920402B7
:100A600010920302F2122EC01092020210920102A2
:100A70000E9455021F8299E09983FA8291E09E8339
:100A800090EA98879AEF99872091030230910402A7
:100A9000275F3F4F3C832B838D831092E900109298
:100AA000040210920302109302020093010249E033
:100AB00050E0BE016F5F7F4F80E00E942F020E94D6
:100AC000550279CF10930202009301020E9439016E
:100AD000DC0112960D911C910115110509F451C10B
:100AE000D801ED91FC910480F581E02DBE016B5E93
:100AF0007F4FC8010995009709F03EC1F8010085B4
:100B00001185EACFF3E0FF120EC08F89882309F424
:100B100040C0823061F440E86DE087E991E00E94D6
:100B2000FC01811148CF81E28093EB0047CF8130F7
:100B300029F440E86BE08BE891E0F1CF833099F73E
:100B40000E943901DC011296ED90FC908E010F5F3E
:100B50001F4F6801E114F10479F0D701ED91FC9188
:100B60000680F781E02DB801C7010995080F111D16
:100B7000F701E084F184EECFD8011C92F6010190D8
:100B80000020E9F73197BF016C197D0940E0C601EB
:100B9000C6CF65E771E0FB01449150E080E80E9418
:100BA0002F0209CF973009F4BECF983021F481E0AD
:100BB0008093F10000CF993009F0FDCE837009F0E9
:100BC000B2CFEDE0F1E081E031E096E32191222324
:100BD00071F08093E9003093EB00DF0111972C91C5
:100BE0002093EC009093ED008F5F873079F78EE7CC
:100BF0008093EA001092EA008F8980931602DBCE80
:100C00008B8D9C8D1092E9001092040210920302C9
:100C10009093020280930102898D811192C08E8986
:100C20009D89913A49F4813209F07DCF47E050E047
:100C300064E071E080E0B3CF913209F074CF833289
:100C400069F48F89988DB0E0A0E0809300019093C3
:100C50000101A0930201B0930301ADCE803269F48B
:100C60008091E80082FFFCCF67E084E091E00E9481
:100C700086028BEF8093E8009ECE823209F09BCEF5
:100C80008F8980930B01EEEFFFE7859194918B3F65
:100C90009C4D51F1E0E0F8E0809104019091050154
:100CA000A0910601B0910701803B9440A105B105D8
:100CB000F1F480910B0180FD1AC0EE3F8AE0F80745
:100CC00089F587E797E7918380838091600080931F
:100CD000050288E19BE00FB6F894A8958093600028
:100CE0000FBE9093600067CEEEEFFAE0D5CF808123
:100CF00091818737974709F05ECEA8958091600073
:100D00008861809360008091050280936000EE3FCF
:100D10002AE0F20789F08091FE0A9091FF0A918300
:100D2000808349CE808191818737980751F29093D3
:100D3000FF0A8093FE0AC5CF1092FF0A1092FE0AA6
:100D40003ACE0E943901DC0112960D911C910115D9
:100D5000110509F4E8CED801ED91FC910190F081E4
:100D6000E02DBE016B5E7F4FC8010995811123CE36
:100D7000F80100851185EBCF181619060CF41BCE6F
:100D8000D2CEF1E0FF12BECE69E771E004CF1F9230
:100D90000F920FB60F9211242F933F938F939F932F
:100DA000AF93BF938091F9019091FA01A091FB015B
:100DB000B091FC013091F80123E0230F2D3758F555
:100DC0000196A11DB11D2093F8018093F901909324
:100DD000FA01A093FB01B093FC018091FD01909179
:100DE000FE01A091FF01B09100020196A11DB11D6D
:100DF0008093FD019093FE01A093FF01B093000248
:100E0000BF91AF919F918F913F912F910F900FBE06
:100E10000F901F90189526E8230F0296A11DB11D73
:100E2000D2CF1F920F920FB60F9211242F933F93A0
:100E30004F935F936F937F938F939F93AF93BF93E2
:100E4000CF93DF93EF93FF932091270130E0F901D7
:100E5000E654FF4F8491F901EC5EFE4FD491F90105
:100E6000EB50FF4FC491CC2379F081110E94930283
:100E7000EC2FF0E0EE0FFF1FE455FF4FA591B4916A
:100E8000EC91ED2381E009F480E020912B01309179
:100E90002C012F5F3F4F30932C0120932B01909119
:100EA0002A01953618F096E090932601909126013C
:100EB000943009F466C0B8F49230F1F0933009F43C
:100EC00044C090912901992309F46BC081117CC021
:100ED00080912801882309F463C08091280161E092
:100EE0000E94DF025EC0953009F457C0963049F782
:100EF00091E09093F7014FC08111E3CF20912B0136
:100F000030912C012436310528F410922C011092D6
:100F10002B01D7CF1092F70110922A01E0912A01FC
:100F200091E09E0F90932A01F0E020912B013091E7
:100F30002C01EE0FFF1FEA5DFE4F308727831092D2
:100F40002C0110922B0193E019C0813009F0B9CF28
:100F5000E0912A0191E09E0F90932A01F0E0209108
:100F60002B0130912C01EE0FFF1FEA5DFE4F308701
:100F7000278310922C0110922B0194E0909326016C
:100F8000A0CF882359F220912B0130912C012536D6
:100F9000310508F496CF95E0F1CF811192CFB5CF0E
:100FA0002D9AFF91EF91DF91CF91BF91AF919F91DA
:100FB0008F917F916F915F914F913F912F910F9002
:100FC0000FBE0F901F90189580912801882321F063
:100FD0008091280160E084CF2D98E3CFE7E1F2E033
:100FE0001382128288EE93E0A0E0B0E084839583C0
:100FF000A683B78387E191E0918380838FEF9FEF92
:10100000958784878DE090E09093680280936702D3
:101010000895789484B5826084BD84B5816084BD70
:1010200085B5826085BD85B5816085BD80916E0086
:10103000816080936E0010928100809181008260B7
:1010400080938100809181008160809381008091F4
:101050008000816080938000809191008260809305
:101060009100809191008160809391008091900027
:101070008160809390008091C10084608093C10062
:101080008091C10082608093C1008091C100816025
:101090008093C1008091C30081608093C3008091E0
:1010A000C00082608093C0008091C2008160809304
:1010B000C20080917A00846080937A0080917A00E7
:1010C000826080937A0080917A00816080937A00B8
:1010D00080917A00806880937A00109216021092B4
:1010E0000602109208028091D70081608093D70099
:1010F00080EA8093D80089B5806189BD89B5826016
:1011000089BD09B400FEFDCF61E070E080E090E0B1
:101110000E9432038091D8008F7C80618093D80038
:101120008091E000807F8093E0008091E1008E7EDE
:101130008093E1008DE08093E200559A209A5D98BB
:10114000289842E0C42EDD24D39452ED752E66E437
:10115000662E70E0E72E70E0F72EC3E0D0E010922C
:10116000720080916702909168029927FC01EC5E01
:10117000FE4F24918B509F4FFC018491882399F05E
:1011800090E0880F991FFC01E951FF4FA591B491A0
:10119000FC01E752FF4F859194918FB7F894EC9141
:1011A0002E2B2C938FBF60E0809167020E94DF029C
:1011B000C092C000D092C1001092C200D092C30071
:1011C0001092C4001092BF007092D1001092BF0024
:1011D0006092CF0088E293E20E941C048091C000DC
:1011E0008F778093C00064E971E180E090E00E9415
:1011F000E90300E210E0812C912CA12C90E8B92E9B
:10120000D501C4018772987DAF77B078892B8A2B7E
:101210008B2BA9F180E392E00E941C048091C00016
:101220008F778093C0006AE976E080E090E00E94CA
:10123000E903B694A794979487940150110901F794
:1012400080E392E00E941C048091C0008F7780931D
:10125000C00068E270E080E090E00E9432032197D5
:1012600009F07DCF60ED77E080E090E00E943203EE
:10127000E114F10409F471CF0E9400006ECF80E305
:1012800092E00E941C048091C0008F778093C00080
:1012900060E372E080E090E0CACFEE0FFF1F0590A0
:0A12A000F491E02D0994F894FFCFBB
:1012AA00FFFFFFFF00E100000000000000C1808195
:1012BA00000000000000004D0164036E016301B4E8
:0612CA0001720190010019
:00000001FF
